{
  "_format": "hh-sol-artifact-1",
  "contractName": "CoinioICO",
  "sourceName": "contracts/CoinioICO.sol",
  "abi": [
    {
      "inputs": [
        {
          "internalType": "contract IERC20",
          "name": "_token",
          "type": "address"
        },
        {
          "internalType": "address",
          "name": "_splitter",
          "type": "address"
        }
      ],
      "stateMutability": "nonpayable",
      "type": "constructor"
    },
    {
      "anonymous": false,
      "inputs": [
        {
          "indexed": false,
          "internalType": "address",
          "name": "sender",
          "type": "address"
        },
        {
          "indexed": false,
          "internalType": "address",
          "name": "receiver",
          "type": "address"
        },
        {
          "indexed": false,
          "internalType": "uint256",
          "name": "amount",
          "type": "uint256"
        }
      ],
      "name": "BuyToken",
      "type": "event"
    },
    {
      "anonymous": false,
      "inputs": [
        {
          "indexed": true,
          "internalType": "address",
          "name": "previousOwner",
          "type": "address"
        },
        {
          "indexed": true,
          "internalType": "address",
          "name": "newOwner",
          "type": "address"
        }
      ],
      "name": "OwnershipTransferred",
      "type": "event"
    },
    {
      "inputs": [
        {
          "internalType": "uint256",
          "name": "amount",
          "type": "uint256"
        }
      ],
      "name": "buy",
      "outputs": [],
      "stateMutability": "payable",
      "type": "function"
    },
    {
      "inputs": [
        {
          "internalType": "uint256",
          "name": "amount",
          "type": "uint256"
        }
      ],
      "name": "calculateCost",
      "outputs": [
        {
          "internalType": "uint256",
          "name": "",
          "type": "uint256"
        }
      ],
      "stateMutability": "view",
      "type": "function"
    },
    {
      "inputs": [],
      "name": "owner",
      "outputs": [
        {
          "internalType": "address",
          "name": "",
          "type": "address"
        }
      ],
      "stateMutability": "view",
      "type": "function"
    },
    {
      "inputs": [],
      "name": "renounceOwnership",
      "outputs": [],
      "stateMutability": "nonpayable",
      "type": "function"
    },
    {
      "inputs": [],
      "name": "token",
      "outputs": [
        {
          "internalType": "contract IERC20",
          "name": "",
          "type": "address"
        }
      ],
      "stateMutability": "view",
      "type": "function"
    },
    {
      "inputs": [
        {
          "internalType": "address",
          "name": "newOwner",
          "type": "address"
        }
      ],
      "name": "transferOwnership",
      "outputs": [],
      "stateMutability": "nonpayable",
      "type": "function"
    },
    {
      "inputs": [],
      "name": "withdraw",
      "outputs": [],
      "stateMutability": "payable",
      "type": "function"
    }
  ],
  "bytecode": "0x608060405260b44262000013919062000223565b63ffffffff166004556702c68af0bb14000060055567016345785d8a00006006553480156200004157600080fd5b506040516200119938038062001199833981810160405281019062000067919062000313565b620000876200007b6200011860201b60201c565b6200012060201b60201c565b6001808190555081600260006101000a81548173ffffffffffffffffffffffffffffffffffffffff021916908373ffffffffffffffffffffffffffffffffffffffff16021790555080600360006101000a81548173ffffffffffffffffffffffffffffffffffffffff021916908373ffffffffffffffffffffffffffffffffffffffff16021790555050506200035a565b600033905090565b60008060009054906101000a900473ffffffffffffffffffffffffffffffffffffffff169050816000806101000a81548173ffffffffffffffffffffffffffffffffffffffff021916908373ffffffffffffffffffffffffffffffffffffffff1602179055508173ffffffffffffffffffffffffffffffffffffffff168173ffffffffffffffffffffffffffffffffffffffff167f8be0079c531659141344cd1fd0a4f28419497f9722a3daafe3b4186f6b6457e060405160405180910390a35050565b600063ffffffff82169050919050565b7f4e487b7100000000000000000000000000000000000000000000000000000000600052601160045260246000fd5b60006200023082620001e4565b91506200023d83620001e4565b92508263ffffffff03821115620002595762000258620001f4565b5b828201905092915050565b600080fd5b600073ffffffffffffffffffffffffffffffffffffffff82169050919050565b6000620002968262000269565b9050919050565b6000620002aa8262000289565b9050919050565b620002bc816200029d565b8114620002c857600080fd5b50565b600081519050620002dc81620002b1565b92915050565b620002ed8162000289565b8114620002f957600080fd5b50565b6000815190506200030d81620002e2565b92915050565b600080604083850312156200032d576200032c62000264565b5b60006200033d85828601620002cb565b92505060206200035085828601620002fc565b9150509250929050565b610e2f806200036a6000396000f3fe6080604052600436106100705760003560e01c80638da5cb5b1161004e5780638da5cb5b146100d3578063d96a094a146100fe578063f2fde38b1461011a578063fc0c546a1461014357610070565b80633ccfd60b146100755780634af18f4f1461007f578063715018a6146100bc575b600080fd5b61007d61016e565b005b34801561008b57600080fd5b506100a660048036038101906100a191906107f7565b610253565b6040516100b39190610833565b60405180910390f35b3480156100c857600080fd5b506100d161028a565b005b3480156100df57600080fd5b506100e861029e565b6040516100f5919061088f565b60405180910390f35b610118600480360381019061011391906107f7565b6102c7565b005b34801561012657600080fd5b50610141600480360381019061013c91906108d6565b6105c8565b005b34801561014f57600080fd5b5061015861064c565b6040516101659190610962565b60405180910390f35b610176610672565b600260015414156101bc576040517f08c379a00000000000000000000000000000000000000000000000000000000081526004016101b3906109da565b60405180910390fd5b600260018190555060003073ffffffffffffffffffffffffffffffffffffffff16319050600360009054906101000a900473ffffffffffffffffffffffffffffffffffffffff1673ffffffffffffffffffffffffffffffffffffffff166108fc829081150290604051600060405180830381858888f19350505050158015610248573d6000803e3d6000fd5b505060018081905550565b6000600454421015610274576006548261026d9190610a29565b9050610285565b600554826102829190610a29565b90505b919050565b610292610672565b61029c60006106f0565b565b60008060009054906101000a900473ffffffffffffffffffffffffffffffffffffffff16905090565b6002600154141561030d576040517f08c379a0000000000000000000000000000000000000000000000000000000008152600401610304906109da565b60405180910390fd5b60026001819055506101f481101561035a576040517f08c379a000000000000000000000000000000000000000000000000000000000815260040161035190610acf565b60405180910390fd5b6103e881111561039f576040517f08c379a000000000000000000000000000000000000000000000000000000000815260040161039690610b3b565b60405180910390fd5b60006103a961029e565b90506000600260009054906101000a900473ffffffffffffffffffffffffffffffffffffffff1673ffffffffffffffffffffffffffffffffffffffff166370a08231836040518263ffffffff1660e01b8152600401610408919061088f565b60206040518083038186803b15801561042057600080fd5b505afa158015610434573d6000803e3d6000fd5b505050506040513d601f19601f820116820180604052508101906104589190610b70565b905082816104669190610b9d565b8110156104a8576040517f08c379a000000000000000000000000000000000000000000000000000000000815260040161049f90610c3f565b60405180910390fd5b6104b183610253565b34146104bc57600080fd5b600260009054906101000a900473ffffffffffffffffffffffffffffffffffffffff1673ffffffffffffffffffffffffffffffffffffffff166323b872dd8333670de0b6b3a7640000876105109190610a29565b6040518463ffffffff1660e01b815260040161052e93929190610c5f565b602060405180830381600087803b15801561054857600080fd5b505af115801561055c573d6000803e3d6000fd5b505050506040513d601f19601f820116820180604052508101906105809190610cce565b507fa5ff468a42a1c7f5a78dd6683a9722f1ef3c388d590959bbd7a6d2c837fcab078233856040516105b493929190610c5f565b60405180910390a150506001808190555050565b6105d0610672565b600073ffffffffffffffffffffffffffffffffffffffff168173ffffffffffffffffffffffffffffffffffffffff161415610640576040517f08c379a000000000000000000000000000000000000000000000000000000000815260040161063790610d6d565b60405180910390fd5b610649816106f0565b50565b600260009054906101000a900473ffffffffffffffffffffffffffffffffffffffff1681565b61067a6107b4565b73ffffffffffffffffffffffffffffffffffffffff1661069861029e565b73ffffffffffffffffffffffffffffffffffffffff16146106ee576040517f08c379a00000000000000000000000000000000000000000000000000000000081526004016106e590610dd9565b60405180910390fd5b565b60008060009054906101000a900473ffffffffffffffffffffffffffffffffffffffff169050816000806101000a81548173ffffffffffffffffffffffffffffffffffffffff021916908373ffffffffffffffffffffffffffffffffffffffff1602179055508173ffffffffffffffffffffffffffffffffffffffff168173ffffffffffffffffffffffffffffffffffffffff167f8be0079c531659141344cd1fd0a4f28419497f9722a3daafe3b4186f6b6457e060405160405180910390a35050565b600033905090565b600080fd5b6000819050919050565b6107d4816107c1565b81146107df57600080fd5b50565b6000813590506107f1816107cb565b92915050565b60006020828403121561080d5761080c6107bc565b5b600061081b848285016107e2565b91505092915050565b61082d816107c1565b82525050565b60006020820190506108486000830184610824565b92915050565b600073ffffffffffffffffffffffffffffffffffffffff82169050919050565b60006108798261084e565b9050919050565b6108898161086e565b82525050565b60006020820190506108a46000830184610880565b92915050565b6108b38161086e565b81146108be57600080fd5b50565b6000813590506108d0816108aa565b92915050565b6000602082840312156108ec576108eb6107bc565b5b60006108fa848285016108c1565b91505092915050565b6000819050919050565b600061092861092361091e8461084e565b610903565b61084e565b9050919050565b600061093a8261090d565b9050919050565b600061094c8261092f565b9050919050565b61095c81610941565b82525050565b60006020820190506109776000830184610953565b92915050565b600082825260208201905092915050565b7f5265656e7472616e637947756172643a207265656e7472616e742063616c6c00600082015250565b60006109c4601f8361097d565b91506109cf8261098e565b602082019050919050565b600060208201905081810360008301526109f3816109b7565b9050919050565b7f4e487b7100000000000000000000000000000000000000000000000000000000600052601160045260246000fd5b6000610a34826107c1565b9150610a3f836107c1565b9250817fffffffffffffffffffffffffffffffffffffffffffffffffffffffffffffffff0483118215151615610a7857610a776109fa565b5b828202905092915050565b7f616d6f756e74203c206d696e696d756d4163636f756e74000000000000000000600082015250565b6000610ab960178361097d565b9150610ac482610a83565b602082019050919050565b60006020820190508181036000830152610ae881610aac565b9050919050565b7f616d6f756e74203e206d6178696d756d4163636f756e74000000000000000000600082015250565b6000610b2560178361097d565b9150610b3082610aef565b602082019050919050565b60006020820190508181036000830152610b5481610b18565b9050919050565b600081519050610b6a816107cb565b92915050565b600060208284031215610b8657610b856107bc565b5b6000610b9484828501610b5b565b91505092915050565b6000610ba8826107c1565b9150610bb3836107c1565b9250827fffffffffffffffffffffffffffffffffffffffffffffffffffffffffffffffff03821115610be857610be76109fa565b5b828201905092915050565b7f49434f3a2062616c616e6365203c20616d6f756e740000000000000000000000600082015250565b6000610c2960158361097d565b9150610c3482610bf3565b602082019050919050565b60006020820190508181036000830152610c5881610c1c565b9050919050565b6000606082019050610c746000830186610880565b610c816020830185610880565b610c8e6040830184610824565b949350505050565b60008115159050919050565b610cab81610c96565b8114610cb657600080fd5b50565b600081519050610cc881610ca2565b92915050565b600060208284031215610ce457610ce36107bc565b5b6000610cf284828501610cb9565b91505092915050565b7f4f776e61626c653a206e6577206f776e657220697320746865207a65726f206160008201527f6464726573730000000000000000000000000000000000000000000000000000602082015250565b6000610d5760268361097d565b9150610d6282610cfb565b604082019050919050565b60006020820190508181036000830152610d8681610d4a565b9050919050565b7f4f776e61626c653a2063616c6c6572206973206e6f7420746865206f776e6572600082015250565b6000610dc360208361097d565b9150610dce82610d8d565b602082019050919050565b60006020820190508181036000830152610df281610db6565b905091905056fea26469706673582212203a135f2199e8a8bded6f184a1a7528a607c0ba612164d21dd89b02d839e859ef64736f6c63430008090033",
  "linkReferences": {},
  "deployedLinkReferences": {}
}